{
  "contractName": "SpaceBunny",
  "abi": [
    {
      "anonymous": false,
      "inputs": [
        {
          "indexed": true,
          "internalType": "address",
          "name": "owner",
          "type": "address"
        },
        {
          "indexed": true,
          "internalType": "address",
          "name": "approved",
          "type": "address"
        },
        {
          "indexed": true,
          "internalType": "uint256",
          "name": "tokenId",
          "type": "uint256"
        }
      ],
      "name": "Approval",
      "type": "event"
    },
    {
      "anonymous": false,
      "inputs": [
        {
          "indexed": true,
          "internalType": "address",
          "name": "owner",
          "type": "address"
        },
        {
          "indexed": true,
          "internalType": "address",
          "name": "operator",
          "type": "address"
        },
        {
          "indexed": false,
          "internalType": "bool",
          "name": "approved",
          "type": "bool"
        }
      ],
      "name": "ApprovalForAll",
      "type": "event"
    },
    {
      "anonymous": false,
      "inputs": [
        {
          "indexed": true,
          "internalType": "address",
          "name": "previousOwner",
          "type": "address"
        },
        {
          "indexed": true,
          "internalType": "address",
          "name": "newOwner",
          "type": "address"
        }
      ],
      "name": "OwnershipTransferred",
      "type": "event"
    },
    {
      "anonymous": false,
      "inputs": [
        {
          "indexed": true,
          "internalType": "address",
          "name": "from",
          "type": "address"
        },
        {
          "indexed": true,
          "internalType": "address",
          "name": "to",
          "type": "address"
        },
        {
          "indexed": true,
          "internalType": "uint256",
          "name": "tokenId",
          "type": "uint256"
        }
      ],
      "name": "Transfer",
      "type": "event"
    },
    {
      "inputs": [
        {
          "internalType": "address",
          "name": "to",
          "type": "address"
        },
        {
          "internalType": "uint256",
          "name": "tokenId",
          "type": "uint256"
        }
      ],
      "name": "approve",
      "outputs": [],
      "stateMutability": "nonpayable",
      "type": "function"
    },
    {
      "inputs": [
        {
          "internalType": "address",
          "name": "owner",
          "type": "address"
        }
      ],
      "name": "balanceOf",
      "outputs": [
        {
          "internalType": "uint256",
          "name": "",
          "type": "uint256"
        }
      ],
      "stateMutability": "view",
      "type": "function",
      "constant": true
    },
    {
      "inputs": [
        {
          "internalType": "uint256",
          "name": "tokenId",
          "type": "uint256"
        }
      ],
      "name": "getApproved",
      "outputs": [
        {
          "internalType": "address",
          "name": "",
          "type": "address"
        }
      ],
      "stateMutability": "view",
      "type": "function",
      "constant": true
    },
    {
      "inputs": [],
      "name": "getTokenIdCounter",
      "outputs": [
        {
          "internalType": "uint256",
          "name": "tokenIdCounter",
          "type": "uint256"
        }
      ],
      "stateMutability": "view",
      "type": "function",
      "constant": true
    },
    {
      "inputs": [
        {
          "internalType": "address",
          "name": "owner",
          "type": "address"
        },
        {
          "internalType": "address",
          "name": "operator",
          "type": "address"
        }
      ],
      "name": "isApprovedForAll",
      "outputs": [
        {
          "internalType": "bool",
          "name": "",
          "type": "bool"
        }
      ],
      "stateMutability": "view",
      "type": "function",
      "constant": true
    },
    {
      "inputs": [],
      "name": "name",
      "outputs": [
        {
          "internalType": "string",
          "name": "",
          "type": "string"
        }
      ],
      "stateMutability": "view",
      "type": "function",
      "constant": true
    },
    {
      "inputs": [],
      "name": "owner",
      "outputs": [
        {
          "internalType": "address",
          "name": "",
          "type": "address"
        }
      ],
      "stateMutability": "view",
      "type": "function",
      "constant": true
    },
    {
      "inputs": [
        {
          "internalType": "uint256",
          "name": "tokenId",
          "type": "uint256"
        }
      ],
      "name": "ownerOf",
      "outputs": [
        {
          "internalType": "address",
          "name": "",
          "type": "address"
        }
      ],
      "stateMutability": "view",
      "type": "function",
      "constant": true
    },
    {
      "inputs": [],
      "name": "renounceOwnership",
      "outputs": [],
      "stateMutability": "nonpayable",
      "type": "function"
    },
    {
      "inputs": [
        {
          "internalType": "address",
          "name": "to",
          "type": "address"
        },
        {
          "internalType": "string",
          "name": "uri",
          "type": "string"
        }
      ],
      "name": "safeMint",
      "outputs": [],
      "stateMutability": "nonpayable",
      "type": "function"
    },
    {
      "inputs": [
        {
          "internalType": "address",
          "name": "from",
          "type": "address"
        },
        {
          "internalType": "address",
          "name": "to",
          "type": "address"
        },
        {
          "internalType": "uint256",
          "name": "tokenId",
          "type": "uint256"
        }
      ],
      "name": "safeTransferFrom",
      "outputs": [],
      "stateMutability": "nonpayable",
      "type": "function"
    },
    {
      "inputs": [
        {
          "internalType": "address",
          "name": "from",
          "type": "address"
        },
        {
          "internalType": "address",
          "name": "to",
          "type": "address"
        },
        {
          "internalType": "uint256",
          "name": "tokenId",
          "type": "uint256"
        },
        {
          "internalType": "bytes",
          "name": "data",
          "type": "bytes"
        }
      ],
      "name": "safeTransferFrom",
      "outputs": [],
      "stateMutability": "nonpayable",
      "type": "function"
    },
    {
      "inputs": [
        {
          "internalType": "address",
          "name": "operator",
          "type": "address"
        },
        {
          "internalType": "bool",
          "name": "approved",
          "type": "bool"
        }
      ],
      "name": "setApprovalForAll",
      "outputs": [],
      "stateMutability": "nonpayable",
      "type": "function"
    },
    {
      "inputs": [
        {
          "internalType": "bytes4",
          "name": "interfaceId",
          "type": "bytes4"
        }
      ],
      "name": "supportsInterface",
      "outputs": [
        {
          "internalType": "bool",
          "name": "",
          "type": "bool"
        }
      ],
      "stateMutability": "view",
      "type": "function",
      "constant": true
    },
    {
      "inputs": [],
      "name": "symbol",
      "outputs": [
        {
          "internalType": "string",
          "name": "",
          "type": "string"
        }
      ],
      "stateMutability": "view",
      "type": "function",
      "constant": true
    },
    {
      "inputs": [
        {
          "internalType": "uint256",
          "name": "tokenId",
          "type": "uint256"
        }
      ],
      "name": "tokenURI",
      "outputs": [
        {
          "internalType": "string",
          "name": "",
          "type": "string"
        }
      ],
      "stateMutability": "view",
      "type": "function",
      "constant": true
    },
    {
      "inputs": [
        {
          "internalType": "address",
          "name": "from",
          "type": "address"
        },
        {
          "internalType": "address",
          "name": "to",
          "type": "address"
        },
        {
          "internalType": "uint256",
          "name": "tokenId",
          "type": "uint256"
        }
      ],
      "name": "transferFrom",
      "outputs": [],
      "stateMutability": "nonpayable",
      "type": "function"
    },
    {
      "inputs": [
        {
          "internalType": "address",
          "name": "newOwner",
          "type": "address"
        }
      ],
      "name": "transferOwnership",
      "outputs": [],
      "stateMutability": "nonpayable",
      "type": "function"
    },
    {
      "inputs": [
        {
          "internalType": "uint256",
          "name": "_validStartdate",
          "type": "uint256"
        }
      ],
      "name": "setValidStartDate",
      "outputs": [],
      "stateMutability": "nonpayable",
      "type": "function"
    },
    {
      "inputs": [],
      "name": "getValidStartDate",
      "outputs": [
        {
          "internalType": "uint256",
          "name": "_validStartDate",
          "type": "uint256"
        }
      ],
      "stateMutability": "view",
      "type": "function",
      "constant": true
    },
    {
      "inputs": [
        {
          "internalType": "uint256",
          "name": "_validEndDate",
          "type": "uint256"
        }
      ],
      "name": "setValidEndDate",
      "outputs": [],
      "stateMutability": "nonpayable",
      "type": "function"
    },
    {
      "inputs": [],
      "name": "getValidEndDate",
      "outputs": [
        {
          "internalType": "uint256",
          "name": "_validEndDate",
          "type": "uint256"
        }
      ],
      "stateMutability": "view",
      "type": "function",
      "constant": true
    },
    {
      "inputs": [
        {
          "internalType": "address",
          "name": "to",
          "type": "address"
        },
        {
          "internalType": "string",
          "name": "uri",
          "type": "string"
        }
      ],
      "name": "mint",
      "outputs": [],
      "stateMutability": "nonpayable",
      "type": "function"
    }
  ],
  "bytecode": "0x60806040526363b8b6006009556363c1f080600a556005600c60006101000a81548160ff021916908360ff1602179055503480156200003d57600080fd5b506040518060400160405280600a81526020017f537061636542756e6e79000000000000000000000000000000000000000000008152506040518060400160405280600381526020017f53425900000000000000000000000000000000000000000000000000000000008152508160009081620000bb91906200043e565b508060019081620000cd91906200043e565b505050620000f0620000e4620000f660201b60201c565b620000fe60201b60201c565b62000525565b600033905090565b6000600760009054906101000a900473ffffffffffffffffffffffffffffffffffffffff16905081600760006101000a81548173ffffffffffffffffffffffffffffffffffffffff021916908373ffffffffffffffffffffffffffffffffffffffff1602179055508173ffffffffffffffffffffffffffffffffffffffff168173ffffffffffffffffffffffffffffffffffffffff167f8be0079c531659141344cd1fd0a4f28419497f9722a3daafe3b4186f6b6457e060405160405180910390a35050565b600081519050919050565b7f4e487b7100000000000000000000000000000000000000000000000000000000600052604160045260246000fd5b7f4e487b7100000000000000000000000000000000000000000000000000000000600052602260045260246000fd5b600060028204905060018216806200024657607f821691505b6020821081036200025c576200025b620001fe565b5b50919050565b60008190508160005260206000209050919050565b60006020601f8301049050919050565b600082821b905092915050565b600060088302620002c67fffffffffffffffffffffffffffffffffffffffffffffffffffffffffffffffff8262000287565b620002d2868362000287565b95508019841693508086168417925050509392505050565b6000819050919050565b6000819050919050565b60006200031f620003196200031384620002ea565b620002f4565b620002ea565b9050919050565b6000819050919050565b6200033b83620002fe565b620003536200034a8262000326565b84845462000294565b825550505050565b600090565b6200036a6200035b565b6200037781848462000330565b505050565b5b818110156200039f576200039360008262000360565b6001810190506200037d565b5050565b601f821115620003ee57620003b88162000262565b620003c38462000277565b81016020851015620003d3578190505b620003eb620003e28562000277565b8301826200037c565b50505b505050565b600082821c905092915050565b60006200041360001984600802620003f3565b1980831691505092915050565b60006200042e838362000400565b9150826002028217905092915050565b6200044982620001c4565b67ffffffffffffffff811115620004655762000464620001cf565b5b6200047182546200022d565b6200047e828285620003a3565b600060209050601f831160018114620004b65760008415620004a1578287015190505b620004ad858262000420565b8655506200051d565b601f198416620004c68662000262565b60005b82811015620004f057848901518255600182019150602085019450602081019050620004c9565b868310156200051057848901516200050c601f89168262000400565b8355505b6001600288020188555050505b505050505050565b61332b80620005356000396000f3fe608060405234801561001057600080fd5b506004361061014d5760003560e01c80638da5cb5b116100c3578063d204c45e1161007c578063d204c45e14610388578063dbfd4b98146103a4578063e985e9c5146103c2578063f2fde38b146103f2578063fbdd0b9a1461040e578063fed5aa661461042c5761014d565b80638da5cb5b146102c857806395d89b41146102e6578063a22cb46514610304578063b88d4fde14610320578063c87b56dd1461033c578063d0def5211461036c5761014d565b806342842e0e1161011557806342842e0e146102085780635e7c1aa5146102245780636352211e1461024057806370a0823114610270578063715018a6146102a057806389e311a5146102aa5761014d565b806301ffc9a71461015257806306fdde0314610182578063081812fc146101a0578063095ea7b3146101d057806323b872dd146101ec575b600080fd5b61016c60048036038101906101679190611f22565b610448565b6040516101799190611f6a565b60405180910390f35b61018a61052a565b6040516101979190612015565b60405180910390f35b6101ba60048036038101906101b5919061206d565b6105bc565b6040516101c791906120db565b60405180910390f35b6101ea60048036038101906101e59190612122565b610602565b005b61020660048036038101906102019190612162565b610719565b005b610222600480360381019061021d9190612162565b610779565b005b61023e6004803603810190610239919061206d565b610799565b005b61025a6004803603810190610255919061206d565b6107a3565b60405161026791906120db565b60405180910390f35b61028a600480360381019061028591906121b5565b610829565b60405161029791906121f1565b60405180910390f35b6102a86108e0565b005b6102b26108f4565b6040516102bf91906121f1565b60405180910390f35b6102d06108fe565b6040516102dd91906120db565b60405180910390f35b6102ee610928565b6040516102fb9190612015565b60405180910390f35b61031e60048036038101906103199190612238565b6109ba565b005b61033a600480360381019061033591906123ad565b6109d0565b005b6103566004803603810190610351919061206d565b610a32565b6040516103639190612015565b60405180910390f35b610386600480360381019061038191906124d1565b610a44565b005b6103a2600480360381019061039d91906124d1565b610c23565b005b6103ac610c54565b6040516103b991906121f1565b60405180910390f35b6103dc60048036038101906103d7919061252d565b610c65565b6040516103e99190611f6a565b60405180910390f35b61040c600480360381019061040791906121b5565b610cf9565b005b610416610d7c565b60405161042391906121f1565b60405180910390f35b6104466004803603810190610441919061206d565b610d86565b005b60007f80ac58cd000000000000000000000000000000000000000000000000000000007bffffffffffffffffffffffffffffffffffffffffffffffffffffffff1916827bffffffffffffffffffffffffffffffffffffffffffffffffffffffff1916148061051357507f5b5e139f000000000000000000000000000000000000000000000000000000007bffffffffffffffffffffffffffffffffffffffffffffffffffffffff1916827bffffffffffffffffffffffffffffffffffffffffffffffffffffffff1916145b80610523575061052282610d90565b5b9050919050565b6060600080546105399061259c565b80601f01602080910402602001604051908101604052809291908181526020018280546105659061259c565b80156105b25780601f10610587576101008083540402835291602001916105b2565b820191906000526020600020905b81548152906001019060200180831161059557829003601f168201915b5050505050905090565b60006105c782610dfa565b6004600083815260200190815260200160002060009054906101000a900473ffffffffffffffffffffffffffffffffffffffff169050919050565b600061060d826107a3565b90508073ffffffffffffffffffffffffffffffffffffffff168373ffffffffffffffffffffffffffffffffffffffff160361067d576040517f08c379a00000000000000000000000000000000000000000000000000000000081526004016106749061263f565b60405180910390fd5b8073ffffffffffffffffffffffffffffffffffffffff1661069c610e45565b73ffffffffffffffffffffffffffffffffffffffff1614806106cb57506106ca816106c5610e45565b610c65565b5b61070a576040517f08c379a0000000000000000000000000000000000000000000000000000000008152600401610701906126d1565b60405180910390fd5b6107148383610e4d565b505050565b61072a610724610e45565b82610f06565b610769576040517f08c379a000000000000000000000000000000000000000000000000000000000815260040161076090612763565b60405180910390fd5b610774838383610f9b565b505050565b610794838383604051806020016040528060008152506109d0565b505050565b8060098190555050565b6000806107af83611294565b9050600073ffffffffffffffffffffffffffffffffffffffff168173ffffffffffffffffffffffffffffffffffffffff1603610820576040517f08c379a0000000000000000000000000000000000000000000000000000000008152600401610817906127cf565b60405180910390fd5b80915050919050565b60008073ffffffffffffffffffffffffffffffffffffffff168273ffffffffffffffffffffffffffffffffffffffff1603610899576040517f08c379a000000000000000000000000000000000000000000000000000000000815260040161089090612861565b60405180910390fd5b600360008373ffffffffffffffffffffffffffffffffffffffff1673ffffffffffffffffffffffffffffffffffffffff168152602001908152602001600020549050919050565b6108e86112d1565b6108f2600061134f565b565b6000600954905090565b6000600760009054906101000a900473ffffffffffffffffffffffffffffffffffffffff16905090565b6060600180546109379061259c565b80601f01602080910402602001604051908101604052809291908181526020018280546109639061259c565b80156109b05780601f10610985576101008083540402835291602001916109b0565b820191906000526020600020905b81548152906001019060200180831161099357829003601f168201915b5050505050905090565b6109cc6109c5610e45565b8383611415565b5050565b6109e16109db610e45565b83610f06565b610a20576040517f08c379a0000000000000000000000000000000000000000000000000000000008152600401610a1790612763565b60405180910390fd5b610a2c84848484611581565b50505050565b6060610a3d826115dd565b9050919050565b6000429050600954811015610a8e576040517f08c379a0000000000000000000000000000000000000000000000000000000008152600401610a85906128cd565b60405180910390fd5b600a54811115610ad3576040517f08c379a0000000000000000000000000000000000000000000000000000000008152600401610aca90612939565b60405180910390fd5b600b60008473ffffffffffffffffffffffffffffffffffffffff1673ffffffffffffffffffffffffffffffffffffffff16815260200190815260200160002060009054906101000a900460ff1615610b60576040517f08c379a0000000000000000000000000000000000000000000000000000000008152600401610b57906129a5565b60405180910390fd5b600c60009054906101000a900460ff1660ff16610b7b610c54565b1115610bbc576040517f08c379a0000000000000000000000000000000000000000000000000000000008152600401610bb390612a11565b60405180910390fd5b610bc68383610c23565b6001600b60008573ffffffffffffffffffffffffffffffffffffffff1673ffffffffffffffffffffffffffffffffffffffff16815260200190815260200160002060006101000a81548160ff021916908315150217905550505050565b6000610c2f60086116ef565b9050610c3b60086116fd565b610c458382611713565b610c4f8183611731565b505050565b6000610c6060086116ef565b905090565b6000600560008473ffffffffffffffffffffffffffffffffffffffff1673ffffffffffffffffffffffffffffffffffffffff16815260200190815260200160002060008373ffffffffffffffffffffffffffffffffffffffff1673ffffffffffffffffffffffffffffffffffffffff16815260200190815260200160002060009054906101000a900460ff16905092915050565b610d016112d1565b600073ffffffffffffffffffffffffffffffffffffffff168173ffffffffffffffffffffffffffffffffffffffff1603610d70576040517f08c379a0000000000000000000000000000000000000000000000000000000008152600401610d6790612aa3565b60405180910390fd5b610d798161134f565b50565b6000600a54905090565b80600a8190555050565b60007f01ffc9a7000000000000000000000000000000000000000000000000000000007bffffffffffffffffffffffffffffffffffffffffffffffffffffffff1916827bffffffffffffffffffffffffffffffffffffffffffffffffffffffff1916149050919050565b610e038161179e565b610e42576040517f08c379a0000000000000000000000000000000000000000000000000000000008152600401610e39906127cf565b60405180910390fd5b50565b600033905090565b816004600083815260200190815260200160002060006101000a81548173ffffffffffffffffffffffffffffffffffffffff021916908373ffffffffffffffffffffffffffffffffffffffff160217905550808273ffffffffffffffffffffffffffffffffffffffff16610ec0836107a3565b73ffffffffffffffffffffffffffffffffffffffff167f8c5be1e5ebec7d5bd14f71427d1e84f3dd0314c0f7b2291e5b200ac8c7c3b92560405160405180910390a45050565b600080610f12836107a3565b90508073ffffffffffffffffffffffffffffffffffffffff168473ffffffffffffffffffffffffffffffffffffffff161480610f545750610f538185610c65565b5b80610f9257508373ffffffffffffffffffffffffffffffffffffffff16610f7a846105bc565b73ffffffffffffffffffffffffffffffffffffffff16145b91505092915050565b8273ffffffffffffffffffffffffffffffffffffffff16610fbb826107a3565b73ffffffffffffffffffffffffffffffffffffffff1614611011576040517f08c379a000000000000000000000000000000000000000000000000000000000815260040161100890612b35565b60405180910390fd5b600073ffffffffffffffffffffffffffffffffffffffff168273ffffffffffffffffffffffffffffffffffffffff1603611080576040517f08c379a000000000000000000000000000000000000000000000000000000000815260040161107790612bc7565b60405180910390fd5b61108d83838360016117df565b8273ffffffffffffffffffffffffffffffffffffffff166110ad826107a3565b73ffffffffffffffffffffffffffffffffffffffff1614611103576040517f08c379a00000000000000000000000000000000000000000000000000000000081526004016110fa90612b35565b60405180910390fd5b6004600082815260200190815260200160002060006101000a81549073ffffffffffffffffffffffffffffffffffffffff02191690556001600360008573ffffffffffffffffffffffffffffffffffffffff1673ffffffffffffffffffffffffffffffffffffffff168152602001908152602001600020600082825403925050819055506001600360008473ffffffffffffffffffffffffffffffffffffffff1673ffffffffffffffffffffffffffffffffffffffff16815260200190815260200160002060008282540192505081905550816002600083815260200190815260200160002060006101000a81548173ffffffffffffffffffffffffffffffffffffffff021916908373ffffffffffffffffffffffffffffffffffffffff160217905550808273ffffffffffffffffffffffffffffffffffffffff168473ffffffffffffffffffffffffffffffffffffffff167fddf252ad1be2c89b69c2b068fc378daa952ba7f163c4a11628f55a4df523b3ef60405160405180910390a461128f83838360016117e5565b505050565b60006002600083815260200190815260200160002060009054906101000a900473ffffffffffffffffffffffffffffffffffffffff169050919050565b6112d9610e45565b73ffffffffffffffffffffffffffffffffffffffff166112f76108fe565b73ffffffffffffffffffffffffffffffffffffffff161461134d576040517f08c379a000000000000000000000000000000000000000000000000000000000815260040161134490612c33565b60405180910390fd5b565b6000600760009054906101000a900473ffffffffffffffffffffffffffffffffffffffff16905081600760006101000a81548173ffffffffffffffffffffffffffffffffffffffff021916908373ffffffffffffffffffffffffffffffffffffffff1602179055508173ffffffffffffffffffffffffffffffffffffffff168173ffffffffffffffffffffffffffffffffffffffff167f8be0079c531659141344cd1fd0a4f28419497f9722a3daafe3b4186f6b6457e060405160405180910390a35050565b8173ffffffffffffffffffffffffffffffffffffffff168373ffffffffffffffffffffffffffffffffffffffff1603611483576040517f08c379a000000000000000000000000000000000000000000000000000000000815260040161147a90612c9f565b60405180910390fd5b80600560008573ffffffffffffffffffffffffffffffffffffffff1673ffffffffffffffffffffffffffffffffffffffff16815260200190815260200160002060008473ffffffffffffffffffffffffffffffffffffffff1673ffffffffffffffffffffffffffffffffffffffff16815260200190815260200160002060006101000a81548160ff0219169083151502179055508173ffffffffffffffffffffffffffffffffffffffff168373ffffffffffffffffffffffffffffffffffffffff167f17307eab39ab6107e8899845ad3d59bd9653f200f220920489ca2b5937696c31836040516115749190611f6a565b60405180910390a3505050565b61158c848484610f9b565b611598848484846117eb565b6115d7576040517f08c379a00000000000000000000000000000000000000000000000000000000081526004016115ce90612d31565b60405180910390fd5b50505050565b60606115e882610dfa565b60006006600084815260200190815260200160002080546116089061259c565b80601f01602080910402602001604051908101604052809291908181526020018280546116349061259c565b80156116815780601f1061165657610100808354040283529160200191611681565b820191906000526020600020905b81548152906001019060200180831161166457829003601f168201915b505050505090506000611692611972565b905060008151036116a75781925050506116ea565b6000825111156116dc5780826040516020016116c4929190612d8d565b604051602081830303815290604052925050506116ea565b6116e584611992565b925050505b919050565b600081600001549050919050565b6001816000016000828254019250508190555050565b61172d8282604051806020016040528060008152506119fa565b5050565b61173a8261179e565b611779576040517f08c379a000000000000000000000000000000000000000000000000000000000815260040161177090612e23565b60405180910390fd5b806006600084815260200190815260200160002090816117999190612fef565b505050565b60008073ffffffffffffffffffffffffffffffffffffffff166117c083611294565b73ffffffffffffffffffffffffffffffffffffffff1614159050919050565b50505050565b50505050565b600061180c8473ffffffffffffffffffffffffffffffffffffffff16611a55565b15611965578373ffffffffffffffffffffffffffffffffffffffff1663150b7a02611835610e45565b8786866040518563ffffffff1660e01b81526004016118579493929190613116565b6020604051808303816000875af192505050801561189357506040513d601f19601f820116820180604052508101906118909190613177565b60015b611915573d80600081146118c3576040519150601f19603f3d011682016040523d82523d6000602084013e6118c8565b606091505b50600081510361190d576040517f08c379a000000000000000000000000000000000000000000000000000000000815260040161190490612d31565b60405180910390fd5b805181602001fd5b63150b7a0260e01b7bffffffffffffffffffffffffffffffffffffffffffffffffffffffff1916817bffffffffffffffffffffffffffffffffffffffffffffffffffffffff19161491505061196a565b600190505b949350505050565b60606040518060800160405280604a81526020016132ac604a9139905090565b606061199d82610dfa565b60006119a7611972565b905060008151116119c757604051806020016040528060008152506119f2565b806119d184611a78565b6040516020016119e2929190612d8d565b6040516020818303038152906040525b915050919050565b611a048383611b46565b611a1160008484846117eb565b611a50576040517f08c379a0000000000000000000000000000000000000000000000000000000008152600401611a4790612d31565b60405180910390fd5b505050565b6000808273ffffffffffffffffffffffffffffffffffffffff163b119050919050565b606060006001611a8784611d63565b01905060008167ffffffffffffffff811115611aa657611aa5612282565b5b6040519080825280601f01601f191660200182016040528015611ad85781602001600182028036833780820191505090505b509050600082602001820190505b600115611b3b578080600190039150507f3031323334353637383961626364656600000000000000000000000000000000600a86061a8153600a8581611b2f57611b2e6131a4565b5b04945060008503611ae6575b819350505050919050565b600073ffffffffffffffffffffffffffffffffffffffff168273ffffffffffffffffffffffffffffffffffffffff1603611bb5576040517f08c379a0000000000000000000000000000000000000000000000000000000008152600401611bac9061321f565b60405180910390fd5b611bbe8161179e565b15611bfe576040517f08c379a0000000000000000000000000000000000000000000000000000000008152600401611bf59061328b565b60405180910390fd5b611c0c6000838360016117df565b611c158161179e565b15611c55576040517f08c379a0000000000000000000000000000000000000000000000000000000008152600401611c4c9061328b565b60405180910390fd5b6001600360008473ffffffffffffffffffffffffffffffffffffffff1673ffffffffffffffffffffffffffffffffffffffff16815260200190815260200160002060008282540192505081905550816002600083815260200190815260200160002060006101000a81548173ffffffffffffffffffffffffffffffffffffffff021916908373ffffffffffffffffffffffffffffffffffffffff160217905550808273ffffffffffffffffffffffffffffffffffffffff16600073ffffffffffffffffffffffffffffffffffffffff167fddf252ad1be2c89b69c2b068fc378daa952ba7f163c4a11628f55a4df523b3ef60405160405180910390a4611d5f6000838360016117e5565b5050565b600080600090507a184f03e93ff9f4daa797ed6e38ed64bf6a1f0100000000000000008310611dc1577a184f03e93ff9f4daa797ed6e38ed64bf6a1f0100000000000000008381611db757611db66131a4565b5b0492506040810190505b6d04ee2d6d415b85acef81000000008310611dfe576d04ee2d6d415b85acef81000000008381611df457611df36131a4565b5b0492506020810190505b662386f26fc100008310611e2d57662386f26fc100008381611e2357611e226131a4565b5b0492506010810190505b6305f5e1008310611e56576305f5e1008381611e4c57611e4b6131a4565b5b0492506008810190505b6127108310611e7b576127108381611e7157611e706131a4565b5b0492506004810190505b60648310611e9e5760648381611e9457611e936131a4565b5b0492506002810190505b600a8310611ead576001810190505b80915050919050565b6000604051905090565b600080fd5b600080fd5b60007fffffffff0000000000000000000000000000000000000000000000000000000082169050919050565b611eff81611eca565b8114611f0a57600080fd5b50565b600081359050611f1c81611ef6565b92915050565b600060208284031215611f3857611f37611ec0565b5b6000611f4684828501611f0d565b91505092915050565b60008115159050919050565b611f6481611f4f565b82525050565b6000602082019050611f7f6000830184611f5b565b92915050565b600081519050919050565b600082825260208201905092915050565b60005b83811015611fbf578082015181840152602081019050611fa4565b60008484015250505050565b6000601f19601f8301169050919050565b6000611fe782611f85565b611ff18185611f90565b9350612001818560208601611fa1565b61200a81611fcb565b840191505092915050565b6000602082019050818103600083015261202f8184611fdc565b905092915050565b6000819050919050565b61204a81612037565b811461205557600080fd5b50565b60008135905061206781612041565b92915050565b60006020828403121561208357612082611ec0565b5b600061209184828501612058565b91505092915050565b600073ffffffffffffffffffffffffffffffffffffffff82169050919050565b60006120c58261209a565b9050919050565b6120d5816120ba565b82525050565b60006020820190506120f060008301846120cc565b92915050565b6120ff816120ba565b811461210a57600080fd5b50565b60008135905061211c816120f6565b92915050565b6000806040838503121561213957612138611ec0565b5b60006121478582860161210d565b925050602061215885828601612058565b9150509250929050565b60008060006060848603121561217b5761217a611ec0565b5b60006121898682870161210d565b935050602061219a8682870161210d565b92505060406121ab86828701612058565b9150509250925092565b6000602082840312156121cb576121ca611ec0565b5b60006121d98482850161210d565b91505092915050565b6121eb81612037565b82525050565b600060208201905061220660008301846121e2565b92915050565b61221581611f4f565b811461222057600080fd5b50565b6000813590506122328161220c565b92915050565b6000806040838503121561224f5761224e611ec0565b5b600061225d8582860161210d565b925050602061226e85828601612223565b9150509250929050565b600080fd5b600080fd5b7f4e487b7100000000000000000000000000000000000000000000000000000000600052604160045260246000fd5b6122ba82611fcb565b810181811067ffffffffffffffff821117156122d9576122d8612282565b5b80604052505050565b60006122ec611eb6565b90506122f882826122b1565b919050565b600067ffffffffffffffff82111561231857612317612282565b5b61232182611fcb565b9050602081019050919050565b82818337600083830152505050565b600061235061234b846122fd565b6122e2565b90508281526020810184848401111561236c5761236b61227d565b5b61237784828561232e565b509392505050565b600082601f83011261239457612393612278565b5b81356123a484826020860161233d565b91505092915050565b600080600080608085870312156123c7576123c6611ec0565b5b60006123d58782880161210d565b94505060206123e68782880161210d565b93505060406123f787828801612058565b925050606085013567ffffffffffffffff81111561241857612417611ec5565b5b6124248782880161237f565b91505092959194509250565b600067ffffffffffffffff82111561244b5761244a612282565b5b61245482611fcb565b9050602081019050919050565b600061247461246f84612430565b6122e2565b9050828152602081018484840111156124905761248f61227d565b5b61249b84828561232e565b509392505050565b600082601f8301126124b8576124b7612278565b5b81356124c8848260208601612461565b91505092915050565b600080604083850312156124e8576124e7611ec0565b5b60006124f68582860161210d565b925050602083013567ffffffffffffffff81111561251757612516611ec5565b5b612523858286016124a3565b9150509250929050565b6000806040838503121561254457612543611ec0565b5b60006125528582860161210d565b92505060206125638582860161210d565b9150509250929050565b7f4e487b7100000000000000000000000000000000000000000000000000000000600052602260045260246000fd5b600060028204905060018216806125b457607f821691505b6020821081036125c7576125c661256d565b5b50919050565b7f4552433732313a20617070726f76616c20746f2063757272656e74206f776e6560008201527f7200000000000000000000000000000000000000000000000000000000000000602082015250565b6000612629602183611f90565b9150612634826125cd565b604082019050919050565b600060208201905081810360008301526126588161261c565b9050919050565b7f4552433732313a20617070726f76652063616c6c6572206973206e6f7420746f60008201527f6b656e206f776e6572206f7220617070726f76656420666f7220616c6c000000602082015250565b60006126bb603d83611f90565b91506126c68261265f565b604082019050919050565b600060208201905081810360008301526126ea816126ae565b9050919050565b7f4552433732313a2063616c6c6572206973206e6f7420746f6b656e206f776e6560008201527f72206f7220617070726f76656400000000000000000000000000000000000000602082015250565b600061274d602d83611f90565b9150612758826126f1565b604082019050919050565b6000602082019050818103600083015261277c81612740565b9050919050565b7f4552433732313a20696e76616c696420746f6b656e2049440000000000000000600082015250565b60006127b9601883611f90565b91506127c482612783565b602082019050919050565b600060208201905081810360008301526127e8816127ac565b9050919050565b7f4552433732313a2061646472657373207a65726f206973206e6f74206120766160008201527f6c6964206f776e65720000000000000000000000000000000000000000000000602082015250565b600061284b602983611f90565b9150612856826127ef565b604082019050919050565b6000602082019050818103600083015261287a8161283e565b9050919050565b7f53616c6520686173206e6f742073746172746564000000000000000000000000600082015250565b60006128b7601483611f90565b91506128c282612881565b602082019050919050565b600060208201905081810360008301526128e6816128aa565b9050919050565b7f53616c65206973206f7665720000000000000000000000000000000000000000600082015250565b6000612923600c83611f90565b915061292e826128ed565b602082019050919050565b6000602082019050818103600083015261295281612916565b9050919050565b7f43616e206f6e6c79206d696e74206f6e6365207065722077616c6c6574000000600082015250565b600061298f601d83611f90565b915061299a82612959565b602082019050919050565b600060208201905081810360008301526129be81612982565b9050919050565b7f43616e206f6e6c79206d696e7420352074696d65730000000000000000000000600082015250565b60006129fb601583611f90565b9150612a06826129c5565b602082019050919050565b60006020820190508181036000830152612a2a816129ee565b9050919050565b7f4f776e61626c653a206e6577206f776e657220697320746865207a65726f206160008201527f6464726573730000000000000000000000000000000000000000000000000000602082015250565b6000612a8d602683611f90565b9150612a9882612a31565b604082019050919050565b60006020820190508181036000830152612abc81612a80565b9050919050565b7f4552433732313a207472616e736665722066726f6d20696e636f72726563742060008201527f6f776e6572000000000000000000000000000000000000000000000000000000602082015250565b6000612b1f602583611f90565b9150612b2a82612ac3565b604082019050919050565b60006020820190508181036000830152612b4e81612b12565b9050919050565b7f4552433732313a207472616e7366657220746f20746865207a65726f2061646460008201527f7265737300000000000000000000000000000000000000000000000000000000602082015250565b6000612bb1602483611f90565b9150612bbc82612b55565b604082019050919050565b60006020820190508181036000830152612be081612ba4565b9050919050565b7f4f776e61626c653a2063616c6c6572206973206e6f7420746865206f776e6572600082015250565b6000612c1d602083611f90565b9150612c2882612be7565b602082019050919050565b60006020820190508181036000830152612c4c81612c10565b9050919050565b7f4552433732313a20617070726f766520746f2063616c6c657200000000000000600082015250565b6000612c89601983611f90565b9150612c9482612c53565b602082019050919050565b60006020820190508181036000830152612cb881612c7c565b9050919050565b7f4552433732313a207472616e7366657220746f206e6f6e20455243373231526560008201527f63656976657220696d706c656d656e7465720000000000000000000000000000602082015250565b6000612d1b603283611f90565b9150612d2682612cbf565b604082019050919050565b60006020820190508181036000830152612d4a81612d0e565b9050919050565b600081905092915050565b6000612d6782611f85565b612d718185612d51565b9350612d81818560208601611fa1565b80840191505092915050565b6000612d998285612d5c565b9150612da58284612d5c565b91508190509392505050565b7f45524337323155524953746f726167653a2055524920736574206f66206e6f6e60008201527f6578697374656e7420746f6b656e000000000000000000000000000000000000602082015250565b6000612e0d602e83611f90565b9150612e1882612db1565b604082019050919050565b60006020820190508181036000830152612e3c81612e00565b9050919050565b60008190508160005260206000209050919050565b60006020601f8301049050919050565b600082821b905092915050565b600060088302612ea57fffffffffffffffffffffffffffffffffffffffffffffffffffffffffffffffff82612e68565b612eaf8683612e68565b95508019841693508086168417925050509392505050565b6000819050919050565b6000612eec612ee7612ee284612037565b612ec7565b612037565b9050919050565b6000819050919050565b612f0683612ed1565b612f1a612f1282612ef3565b848454612e75565b825550505050565b600090565b612f2f612f22565b612f3a818484612efd565b505050565b5b81811015612f5e57612f53600082612f27565b600181019050612f40565b5050565b601f821115612fa357612f7481612e43565b612f7d84612e58565b81016020851015612f8c578190505b612fa0612f9885612e58565b830182612f3f565b50505b505050565b600082821c905092915050565b6000612fc660001984600802612fa8565b1980831691505092915050565b6000612fdf8383612fb5565b9150826002028217905092915050565b612ff882611f85565b67ffffffffffffffff81111561301157613010612282565b5b61301b825461259c565b613026828285612f62565b600060209050601f8311600181146130595760008415613047578287015190505b6130518582612fd3565b8655506130b9565b601f19841661306786612e43565b60005b8281101561308f5784890151825560018201915060208501945060208101905061306a565b868310156130ac57848901516130a8601f891682612fb5565b8355505b6001600288020188555050505b505050505050565b600081519050919050565b600082825260208201905092915050565b60006130e8826130c1565b6130f281856130cc565b9350613102818560208601611fa1565b61310b81611fcb565b840191505092915050565b600060808201905061312b60008301876120cc565b61313860208301866120cc565b61314560408301856121e2565b818103606083015261315781846130dd565b905095945050505050565b60008151905061317181611ef6565b92915050565b60006020828403121561318d5761318c611ec0565b5b600061319b84828501613162565b91505092915050565b7f4e487b7100000000000000000000000000000000000000000000000000000000600052601260045260246000fd5b7f4552433732313a206d696e7420746f20746865207a65726f2061646472657373600082015250565b6000613209602083611f90565b9150613214826131d3565b602082019050919050565b60006020820190508181036000830152613238816131fc565b9050919050565b7f4552433732313a20746f6b656e20616c7265616479206d696e74656400000000600082015250565b6000613275601c83611f90565b91506132808261323f565b602082019050919050565b600060208201905081810360008301526132a481613268565b905091905056fe68747470733a2f2f6769746875622e636f6d2f6b616977656966616e31312f4d657263656465732d42656e7a2d41737369676e6d656e742f626c6f622f646576656c6f702f6a736f6e2fa26469706673582212203d8eeac0058363e849e98fad15e9532dbb2d37d196a62dd451f7bae8c60bb2c164736f6c63430008130033",
  "immutableReferences": {},
  "source": "// SPDX-License-Identifier: MIT\r\npragma solidity ^0.8.19;\r\n\r\nimport \"./Token.sol\";\r\n\r\ncontract SpaceBunny is Token{\r\n    uint validStartDate = 1673049600;\r\n    uint validEndDate = 1673654400;\r\n    mapping(address => bool) private mintedForWallet;\r\n    uint8 maxMints = 5;\r\n\r\n    function setValidStartDate(uint256 _validStartdate) public {\r\n        validStartDate = _validStartdate;\r\n    }\r\n\r\n    function getValidStartDate() public view returns (uint _validStartDate) {\r\n        return validStartDate;\r\n    }\r\n\r\n    function setValidEndDate(uint256 _validEndDate) public {\r\n        validEndDate = _validEndDate;\r\n    }\r\n\r\n    function getValidEndDate() public view returns (uint _validEndDate) {\r\n        return validEndDate;\r\n    }\r\n\r\n    function mint(address to, string memory uri) public {\r\n        uint timestampNow = block.timestamp;\r\n        require(timestampNow >= validStartDate, \"Sale has not started\" );\r\n        require(timestampNow <= validEndDate, \"Sale is over\" );\r\n        require(!mintedForWallet[to], \"Can only mint once per wallet\");\r\n        require(getTokenIdCounter() <= maxMints, \"Can only mint 5 times\");\r\n        safeMint(to, uri);\r\n        mintedForWallet[to] = true;\r\n    }\r\n}\r\n\r\n",
  "sourcePath": "C:\\Users\\datfank\\Personal and Admin\\Courses\\Blockchain\\Mercedes-Benz-Assignment\\contracts\\SpaceBunny.sol",
  "compiler": {
    "name": "solc",
    "version": "0.8.19+commit.7dd6d404.Emscripten.clang"
  },
  "schemaVersion": "3.4.13",
  "updatedAt": "2023-03-21T17:34:51.981Z",
  "networkType": "ethereum",
  "devdoc": {
    "events": {
      "Approval(address,address,uint256)": {
        "details": "Emitted when `owner` enables `approved` to manage the `tokenId` token."
      },
      "ApprovalForAll(address,address,bool)": {
        "details": "Emitted when `owner` enables or disables (`approved`) `operator` to manage all of its assets."
      },
      "Transfer(address,address,uint256)": {
        "details": "Emitted when `tokenId` token is transferred from `from` to `to`."
      }
    },
    "kind": "dev",
    "methods": {
      "approve(address,uint256)": {
        "details": "See {IERC721-approve}."
      },
      "balanceOf(address)": {
        "details": "See {IERC721-balanceOf}."
      },
      "getApproved(uint256)": {
        "details": "See {IERC721-getApproved}."
      },
      "isApprovedForAll(address,address)": {
        "details": "See {IERC721-isApprovedForAll}."
      },
      "name()": {
        "details": "See {IERC721Metadata-name}."
      },
      "owner()": {
        "details": "Returns the address of the current owner."
      },
      "ownerOf(uint256)": {
        "details": "See {IERC721-ownerOf}."
      },
      "renounceOwnership()": {
        "details": "Leaves the contract without owner. It will not be possible to call `onlyOwner` functions anymore. Can only be called by the current owner. NOTE: Renouncing ownership will leave the contract without an owner, thereby removing any functionality that is only available to the owner."
      },
      "safeTransferFrom(address,address,uint256)": {
        "details": "See {IERC721-safeTransferFrom}."
      },
      "safeTransferFrom(address,address,uint256,bytes)": {
        "details": "See {IERC721-safeTransferFrom}."
      },
      "setApprovalForAll(address,bool)": {
        "details": "See {IERC721-setApprovalForAll}."
      },
      "supportsInterface(bytes4)": {
        "details": "See {IERC165-supportsInterface}."
      },
      "symbol()": {
        "details": "See {IERC721Metadata-symbol}."
      },
      "transferFrom(address,address,uint256)": {
        "details": "See {IERC721-transferFrom}."
      },
      "transferOwnership(address)": {
        "details": "Transfers ownership of the contract to a new account (`newOwner`). Can only be called by the current owner."
      }
    },
    "version": 1
  },
  "userdoc": {
    "kind": "user",
    "methods": {},
    "version": 1
  }
}